{
    "abi": [
        {
            "inputs": [
                {
                    "internalType": "contract IEntryPoint",
                    "name": "anEntryPoint",
                    "type": "address"
                },
                {
                    "internalType": "address",
                    "name": "anOwner",
                    "type": "address"
                },
                {
                    "internalType": "address",
                    "name": "anEllipticCurve",
                    "type": "address"
                },
                {
                    "internalType": "uint256[2]",
                    "name": "_q",
                    "type": "uint256[2]"
                }
            ],
            "stateMutability": "nonpayable",
            "type": "constructor"
        },
        {
            "anonymous": false,
            "inputs": [
                {
                    "indexed": true,
                    "internalType": "address",
                    "name": "oldEntryPoint",
                    "type": "address"
                },
                {
                    "indexed": true,
                    "internalType": "address",
                    "name": "newEntryPoint",
                    "type": "address"
                }
            ],
            "name": "EntryPointChanged",
            "type": "event"
        },
        {
            "inputs": [],
            "name": "addDeposit",
            "outputs": [],
            "stateMutability": "payable",
            "type": "function"
        },
        {
            "inputs": [],
            "name": "ec",
            "outputs": [
                {
                    "internalType": "address",
                    "name": "",
                    "type": "address"
                }
            ],
            "stateMutability": "view",
            "type": "function"
        },
        {
            "inputs": [],
            "name": "entryPoint",
            "outputs": [
                {
                    "internalType": "contract IEntryPoint",
                    "name": "",
                    "type": "address"
                }
            ],
            "stateMutability": "view",
            "type": "function"
        },
        {
            "inputs": [
                {
                    "internalType": "address",
                    "name": "dest",
                    "type": "address"
                },
                {
                    "internalType": "uint256",
                    "name": "value",
                    "type": "uint256"
                },
                {
                    "internalType": "bytes",
                    "name": "func",
                    "type": "bytes"
                }
            ],
            "name": "exec",
            "outputs": [],
            "stateMutability": "nonpayable",
            "type": "function"
        },
        {
            "inputs": [
                {
                    "internalType": "address[]",
                    "name": "dest",
                    "type": "address[]"
                },
                {
                    "internalType": "bytes[]",
                    "name": "func",
                    "type": "bytes[]"
                }
            ],
            "name": "execBatch",
            "outputs": [],
            "stateMutability": "nonpayable",
            "type": "function"
        },
        {
            "inputs": [
                {
                    "internalType": "address",
                    "name": "dest",
                    "type": "address"
                },
                {
                    "internalType": "uint256",
                    "name": "value",
                    "type": "uint256"
                },
                {
                    "internalType": "bytes",
                    "name": "func",
                    "type": "bytes"
                }
            ],
            "name": "execFromEntryPoint",
            "outputs": [],
            "stateMutability": "nonpayable",
            "type": "function"
        },
        {
            "inputs": [],
            "name": "getDeposit",
            "outputs": [
                {
                    "internalType": "uint256",
                    "name": "",
                    "type": "uint256"
                }
            ],
            "stateMutability": "view",
            "type": "function"
        },
        {
            "inputs": [],
            "name": "nonce",
            "outputs": [
                {
                    "internalType": "uint256",
                    "name": "",
                    "type": "uint256"
                }
            ],
            "stateMutability": "view",
            "type": "function"
        },
        {
            "inputs": [],
            "name": "owner",
            "outputs": [
                {
                    "internalType": "address",
                    "name": "",
                    "type": "address"
                }
            ],
            "stateMutability": "view",
            "type": "function"
        },
        {
            "inputs": [
                {
                    "internalType": "uint256",
                    "name": "",
                    "type": "uint256"
                }
            ],
            "name": "q",
            "outputs": [
                {
                    "internalType": "uint256",
                    "name": "",
                    "type": "uint256"
                }
            ],
            "stateMutability": "view",
            "type": "function"
        },
        {
            "inputs": [
                {
                    "internalType": "address payable",
                    "name": "dest",
                    "type": "address"
                },
                {
                    "internalType": "uint256",
                    "name": "amount",
                    "type": "uint256"
                }
            ],
            "name": "transfer",
            "outputs": [],
            "stateMutability": "nonpayable",
            "type": "function"
        },
        {
            "inputs": [
                {
                    "internalType": "address",
                    "name": "newEntryPoint",
                    "type": "address"
                }
            ],
            "name": "updateEntryPoint",
            "outputs": [],
            "stateMutability": "nonpayable",
            "type": "function"
        },
        {
            "inputs": [
                {
                    "components": [
                        {
                            "internalType": "address",
                            "name": "sender",
                            "type": "address"
                        },
                        {
                            "internalType": "uint256",
                            "name": "nonce",
                            "type": "uint256"
                        },
                        {
                            "internalType": "bytes",
                            "name": "initCode",
                            "type": "bytes"
                        },
                        {
                            "internalType": "bytes",
                            "name": "callData",
                            "type": "bytes"
                        },
                        {
                            "internalType": "uint256",
                            "name": "callGasLimit",
                            "type": "uint256"
                        },
                        {
                            "internalType": "uint256",
                            "name": "verificationGasLimit",
                            "type": "uint256"
                        },
                        {
                            "internalType": "uint256",
                            "name": "preVerificationGas",
                            "type": "uint256"
                        },
                        {
                            "internalType": "uint256",
                            "name": "maxFeePerGas",
                            "type": "uint256"
                        },
                        {
                            "internalType": "uint256",
                            "name": "maxPriorityFeePerGas",
                            "type": "uint256"
                        },
                        {
                            "internalType": "bytes",
                            "name": "paymasterAndData",
                            "type": "bytes"
                        },
                        {
                            "internalType": "bytes",
                            "name": "signature",
                            "type": "bytes"
                        }
                    ],
                    "internalType": "struct UserOperation",
                    "name": "userOp",
                    "type": "tuple"
                },
                {
                    "internalType": "bytes32",
                    "name": "requestId",
                    "type": "bytes32"
                },
                {
                    "internalType": "address",
                    "name": "aggregator",
                    "type": "address"
                },
                {
                    "internalType": "uint256",
                    "name": "missingWalletFunds",
                    "type": "uint256"
                }
            ],
            "name": "validateUserOp",
            "outputs": [],
            "stateMutability": "nonpayable",
            "type": "function"
        },
        {
            "inputs": [
                {
                    "internalType": "address payable",
                    "name": "withdrawAddress",
                    "type": "address"
                },
                {
                    "internalType": "uint256",
                    "name": "amount",
                    "type": "uint256"
                }
            ],
            "name": "withdrawDepositTo",
            "outputs": [],
            "stateMutability": "nonpayable",
            "type": "function"
        },
        {
            "stateMutability": "payable",
            "type": "receive"
        }
    ],
    "bytecode": {
        "object": "0x60806040523480156200001157600080fd5b5060405162000fa538038062000fa583398101604081905262000034916200012a565b600480546001600160a01b038087166001600160a01b031992831617909255600080548684166c01000000000000000000000000026001600160601b0390911617905560018054928516929091169190911790556200009660028281620000a1565b5050505050620001f1565b8260028101928215620000d2579160200282015b82811115620000d2578251825591602001919060010190620000b5565b50620000e0929150620000e4565b5090565b5b80821115620000e05760008155600101620000e5565b6001600160a01b03811681146200011157600080fd5b50565b634e487b7160e01b600052604160045260246000fd5b60008060008060a085870312156200014157600080fd5b84516200014e81620000fb565b809450506020808601516200016381620000fb565b60408701519094506200017681620000fb565b9250607f860187136200018857600080fd5b604080519081016001600160401b0381118282101715620001ad57620001ad62000114565b6040528060a0880189811115620001c357600080fd5b606089015b81811015620001e15780518352918401918401620001c8565b5096999598509396509450505050565b610da480620002016000396000f3fe6080604052600436106100e15760003560e01c80639a486cc71161007f578063b0d691fe11610059578063b0d691fe14610247578063c399ec8814610265578063d0cb75fa1461027a578063f83b5dce1461029a57600080fd5b80639a486cc7146101db578063a9059cbb14610209578063affed0e01461022957600080fd5b80634a58db19116100bb5780634a58db191461014f5780634d44560d1461015757806380c5c7d0146101775780638da5cb5b1461019757600080fd5b80630565bb67146100ed5780630825d1fc1461010f5780631b71bb6e1461012f57600080fd5b366100e857005b600080fd5b3480156100f957600080fd5b5061010d61010836600461098b565b6102ba565b005b34801561011b57600080fd5b5061010d61012a366004610a14565b610309565b34801561013b57600080fd5b5061010d61014a366004610a7b565b610344565b61010d610358565b34801561016357600080fd5b5061010d610172366004610a9f565b6103c9565b34801561018357600080fd5b5061010d61019236600461098b565b610445565b3480156101a357600080fd5b506000546101be90600160601b90046001600160a01b031681565b6040516001600160a01b0390911681526020015b60405180910390f35b3480156101e757600080fd5b506101fb6101f6366004610acb565b61044d565b6040519081526020016101d2565b34801561021557600080fd5b5061010d610224366004610a9f565b610464565b34801561023557600080fd5b506000546001600160601b03166101fb565b34801561025357600080fd5b506004546001600160a01b03166101be565b34801561027157600080fd5b506101fb6104a7565b34801561028657600080fd5b5061010d610295366004610b30565b61052a565b3480156102a657600080fd5b506001546101be906001600160a01b031681565b6102c261062a565b610303848484848080601f01602080910402602001604051908101604052809392919081815260200183838082843760009201919091525061068492505050565b50505050565b6103116106f4565b61031c84848461074e565b6103296040850185610b9c565b905060000361033b5761033b84610833565b610303816108c5565b61034c610912565b6103558161091a565b50565b600061036c6004546001600160a01b031690565b6001600160a01b03163460405160006040518083038185875af1925050503d80600081146103b6576040519150601f19603f3d011682016040523d82523d6000602084013e6103bb565b606091505b505090508061035557600080fd5b6103d161062a565b6004546001600160a01b031660405163040b850f60e31b81526001600160a01b03848116600483015260248201849052919091169063205c287890604401600060405180830381600087803b15801561042957600080fd5b505af115801561043d573d6000803e3d6000fd5b505050505050565b6102c26106f4565b6002816002811061045d57600080fd5b0154905081565b61046c61062a565b6040516001600160a01b0383169082156108fc029083906000818181858888f193505050501580156104a2573d6000803e3d6000fd5b505050565b60006104bb6004546001600160a01b031690565b6040516370a0823160e01b81523060048201526001600160a01b0391909116906370a0823190602401602060405180830381865afa158015610501573d6000803e3d6000fd5b505050506040513d601f19601f820116820180604052508101906105259190610be3565b905090565b61053261062a565b82811461057c5760405162461bcd60e51b815260206004820152601360248201527277726f6e67206172726179206c656e6774687360681b60448201526064015b60405180910390fd5b60005b838110156106235761061185858381811061059c5761059c610bfc565b90506020020160208101906105b19190610a7b565b60008585858181106105c5576105c5610bfc565b90506020028101906105d79190610b9c565b8080601f01602080910402602001604051908101604052809392919081815260200183838082843760009201919091525061068492505050565b8061061b81610c28565b91505061057f565b5050505050565b600054600160601b90046001600160a01b031633148061064957503330145b6106825760405162461bcd60e51b815260206004820152600a60248201526937b7363c9037bbb732b960b11b6044820152606401610573565b565b600080846001600160a01b031684846040516106a09190610c41565b60006040518083038185875af1925050503d80600081146106dd576040519150601f19603f3d011682016040523d82523d6000602084013e6106e2565b606091505b50915091508161062357805160208201fd5b6004546001600160a01b031633146106825760405162461bcd60e51b815260206004820152601b60248201527f77616c6c65743a206e6f742066726f6d20456e747279506f696e7400000000006044820152606401610573565b600061075e610140850185610b9c565b61076d91602091600091610c7c565b61077691610ca6565b90506000610788610140860186610b9c565b61079791604091602091610c7c565b6107a091610ca6565b6001546040805180820182528581526020810184905290516304e960d760e01b81529293506001600160a01b03909116916304e960d7916107e991889190600290600401610cc5565b602060405180830381865afa158015610806573d6000803e3d6000fd5b505050506040513d601f19601f8201168201806040525081019061082a9190610d26565b61062357600080fd5b600080546020830135916001600160601b03909116908061085383610d48565b91906101000a8154816001600160601b0302191690836001600160601b031602179055506001600160601b0316146103555760405162461bcd60e51b815260206004820152601560248201527477616c6c65743a20696e76616c6964206e6f6e636560581b6044820152606401610573565b801561035557604051600090339060001990849084818181858888f193505050503d8060008114610623576040519150601f19603f3d011682016040523d82523d6000602084013e610623565b61068261062a565b6004546040516001600160a01b038084169216907f450909c1478d09248269d4ad4fa8cba61ca3f50faed58c7aedefa51c7f62b83a90600090a3600480546001600160a01b0319166001600160a01b0392909216919091179055565b6001600160a01b038116811461035557600080fd5b600080600080606085870312156109a157600080fd5b84356109ac81610976565b935060208501359250604085013567ffffffffffffffff808211156109d057600080fd5b818701915087601f8301126109e457600080fd5b8135818111156109f357600080fd5b886020828501011115610a0557600080fd5b95989497505060200194505050565b60008060008060808587031215610a2a57600080fd5b843567ffffffffffffffff811115610a4157600080fd5b85016101608188031215610a5457600080fd5b9350602085013592506040850135610a6b81610976565b9396929550929360600135925050565b600060208284031215610a8d57600080fd5b8135610a9881610976565b9392505050565b60008060408385031215610ab257600080fd5b8235610abd81610976565b946020939093013593505050565b600060208284031215610add57600080fd5b5035919050565b60008083601f840112610af657600080fd5b50813567ffffffffffffffff811115610b0e57600080fd5b6020830191508360208260051b8501011115610b2957600080fd5b9250929050565b60008060008060408587031215610b4657600080fd5b843567ffffffffffffffff80821115610b5e57600080fd5b610b6a88838901610ae4565b90965094506020870135915080821115610b8357600080fd5b50610b9087828801610ae4565b95989497509550505050565b6000808335601e19843603018112610bb357600080fd5b83018035915067ffffffffffffffff821115610bce57600080fd5b602001915036819003821315610b2957600080fd5b600060208284031215610bf557600080fd5b5051919050565b634e487b7160e01b600052603260045260246000fd5b634e487b7160e01b600052601160045260246000fd5b600060018201610c3a57610c3a610c12565b5060010190565b6000825160005b81811015610c625760208186018101518583015201610c48565b81811115610c71576000828501525b509190910192915050565b60008085851115610c8c57600080fd5b83861115610c9957600080fd5b5050820193919092039150565b80356020831015610cbf57600019602084900360031b1b165b92915050565b83815260a0810160208083018560005b6002811015610cf257815183529183019190830190600101610cd5565b505050606083018460005b6002811015610d1a57815483529183019160019182019101610cfd565b50505050949350505050565b600060208284031215610d3857600080fd5b81518015158114610a9857600080fd5b60006001600160601b03808316818103610d6457610d64610c12565b600101939250505056fea26469706673582212200c0727a34bcf1667db34b0c1ea504cab79e2ec03c0b6e8147181e4e28dc2a56664736f6c634300080f0033",
        "linkReferences": {}
    },
    "methodIdentifiers": {
        "addDeposit()": "4a58db19",
        "ec()": "f83b5dce",
        "entryPoint()": "b0d691fe",
        "exec(address,uint256,bytes)": "0565bb67",
        "execBatch(address[],bytes[])": "d0cb75fa",
        "execFromEntryPoint(address,uint256,bytes)": "80c5c7d0",
        "getDeposit()": "c399ec88",
        "nonce()": "affed0e0",
        "owner()": "8da5cb5b",
        "q(uint256)": "9a486cc7",
        "transfer(address,uint256)": "a9059cbb",
        "updateEntryPoint(address)": "1b71bb6e",
        "validateUserOp((address,uint256,bytes,bytes,uint256,uint256,uint256,uint256,uint256,bytes,bytes),bytes32,address,uint256)": "0825d1fc",
        "withdrawDepositTo(address,uint256)": "4d44560d"
    },
    "id": 7
}